:020000020000FC
:040000000C94470015
:04002C000C9422000E
:100040000C9433000F930FB70F9333953A3011F49C
:1000500030E02395351719F4241709F4A0D00F9137
:100060000FBF0F9118950F930FB70F93803031F496
:100070005F9A5E98922F49D0839505C05E9A5F98EB
:10008000932F43D08A950F910FBF0F9118959FEF33
:100090009DBF98E09EBF9FEF94B99AB994EF90935B
:1000A000890094E29093880090E0909380009CE017
:1000B0009093810000916F00026000936F0004E054
:1000C00005BD01E005BB01E000936E0007E610E00E
:1000D0000093C4001093C50008E10093C100E2E260
:1000E000F2E004D059D05BD07894FFCF0F931F93E8
:1000F0000591003039F01091C00015FFFCCF00933E
:10010000C600F6CF1F910F910895903091F0913075
:10011000A9F09230C1F09330D9F09430F1F09530DD
:1001200009F1963021F1973039F1983051F1993039
:1001300069F15A985B985C985D982DC05A9A5B98C3
:100140005C985D9828C05A985B9A5C985D9823C02B
:100150005A9A5B9A5C985D981EC05A985B985C9A14
:100160005D9819C05A9A5B985C9A5D9814C05A9829
:100170005B9A5C9A5D980FC05A9A5B9A5C9A5D98FC
:100180000AC05A985B985C985D9A05C05A9A5B9829
:100190005C985D9A00C0089560E070E00895E2E028
:1001A000F2E090E0E60FF91F059115914591559108
:1001B00020E030E06C5F91E0903051F09F9391230C
:1001C0009F9109F0289A2A9A2A982898990FF4CF93
:1001D00091E0903051F09F9390239F9109F0289ADD
:1001E0002A9A2A982898990FF4CF299A2998E2E513
:1001F000F2E090E0E70FF91F755E78DF603261F2A0
:100200000895329202015292000691910101929258
:1002100000068632020186520006868605018A8A19
:1002200000062A2A2A2054726166666963204C6996
:100230006768747320415652202D2041546D6567C4
:100240006133323850202D204C4F47202A2A2A0A69
:100250000D005B53746174655D20313030303020A7
:100260005B54696D655D203230730A0D005B537419
:100270006174655D203230303030205B54696D65CB
:100280005D203035730A0D005B53746174655D2029
:100290003030303031205B54696D655D2031307312
:1002A0000A0D005B53746174655D2030303030306E
:1002B000205B54696D655D203035730A0D005B531A
:1002C000746174655D203031313030205B54696D6C
:1002D000655D203230730A0D005B53746174655D97
:1002E000203031323030205B54696D655D2030350F
:1002F000730A0D005B53746174655D2030313031D9
:1003000030205B54696D655D203530730A0D005BEC
:1003100053746174655D203032303230205B546933
:0A0320006D655D203035730A0D0095
:00000001FF
