:020000020000FC
:040000000C94230039
:10002C000C9418000F930FB70F935395521709F4B4
:10003C002DD00F910FBF0F9118953292145292053B
:10004C0091910A9292058632148652058686328ADE
:10005C008A054FEF4DBF48E04EBF4FEF44B940E02B
:10006C00409389004FE34093880040E04093800028
:10007C004CE04093810000916F00026000936F0090
:10008C0003D004D07894FFCF30E00895E6E4F0E09C
:10009C00E30F05911591259150E03D5F41E040380B
:1000AC0051F04F9340234F9109F0289A2A9A2A989D
:1000BC002898440FF4CF41E0403851F04F9341233E
:1000CC004F9109F0289A2A9A2A982898440FF4CF2D
:0C00DC002998299A29983831B9F2089522
:00000001FF
