:020000020000FC
:040000000C94470015
:04002C000C9422000E
:100040000C9433000F930FB70F9353955A3011F45C
:1000500050E04395531719F4421709F4A0D00F91BB
:100060000FBF0F9118950F930FB70F93903031F486
:100070005F9A5E98842F47D0939505C05E9A5F98EB
:10008000852F41D09A950F910FBF0F9118958FEF43
:100090008DBF88E08EBF8FEF84B98AB984EF8093DB
:1000A000890084E28093880080E0809380008CE067
:1000B0008093810000916F00026000936F0004E064
:1000C00005BD01E005BB01E000936E0007E610E00E
:1000D0000093C4001093C50008E10093C1005CD0F8
:1000E0005ED090E07894FFCF0F931F93059100307E
:1000F00039F01091C00015FFFCCF0093C600F6CF79
:100100001F910F910895803099F08130B1F08230C5
:10011000C9F08330E1F08430F9F0853011F1863098
:1001200029F1873041F1883059F1893071F132C0BD
:100130005A985B985C985D982EC05A9A5B985C9828
:100140005D9829C05A985B9A5C985D9824C05A9A29
:100150005B9A5C985D981FC05A985B985C9A5D9812
:100160001AC05A9A5B985C9A5D9815C05A985B9A27
:100170005C9A5D9810C05A9A5B9A5C9A5D980BC025
:100180005A985B985C985D9A06C05A9A5B985C98FE
:100190005D9A01C00895089560E070E00895E2E07E
:1001A000F2E080E0E60FF81F059115912591359159
:1001B00040E050E06C5F81E0803051F08F9381230C
:1001C0008F9109F0289A2A9A2A982898880FF4CFB4
:1001D00081E0803051F08F9380238F9109F0289A2D
:1001E0002A9A2A982898880FF4CF299A2998E2E227
:1001F000F2E080E0E70FF81F745E76DF603261F2B4
:100200000895329202015292000691910101929258
:1002100000068632020186520006868605018A8A19
:1002200000067C205B53656D6170686F72652053BA
:10023000746174655D203130303030207C007C206A
:100240005B53656D6170686F72652053746174658E
:100250005D203230303030207C007C205B53656D77
:100260006170686F72652053746174655D20303011
:10027000303031207C007C205B53656D6170686F8D
:1002800072652053746174655D20303030303020E9
:100290007C007C205B53656D6170686F72652053D4
:1002A000746174655D203031313030207C007C20F9
:1002B0005B53656D6170686F72652053746174651E
:1002C0005D203031323030207C007C205B53656D06
:1002D0006170686F72652053746174655D203031A0
:1002E000303130207C007C205B53656D6170686F1D
:1002F00072652053746174655D2030323032302075
:020300007C007F
:00000001FF
