:020000020000FC
:040000000C94470015
:04002C000C9422000E
:100040000C9433000F930FB70F9353955A3011F45C
:1000500050E04395531719F4421709F497D00F91C4
:100060000FBF0F9118950F930FB70F93803031F496
:100070005E9A5F98742F3FD0839505C05F9A5E9813
:10008000752F39D08A950F910FBF0F911895329225
:10009000020152920006919101019292000686326D
:1000A000020186520006868605018A8A00067FEFD5
:1000B0007DBF78E07EBF7FEF74B97AB970E070934E
:1000C00089007FE37093880070E0709380007CE08B
:1000D0007093810000916F00026000936F0004E054
:1000E00005BD01E005BB01E000936E004DD04ED090
:1000F00080E07894FFCF703099F07130B1F07230B9
:10010000C9F07330E1F07430F9F0753011F17630E8
:1001100029F1773041F1783059F1793071F132C0FD
:100120005A985B985C985D982EC05A9A5B985C9838
:100130005D9829C05A985B9A5C985D9824C05A9A39
:100140005B9A5C985D981FC05A985B985C9A5D9822
:100150001AC05A9A5B985C9A5D9815C05A985B9A37
:100160005C9A5D9810C05A9A5B9A5C9A5D980BC035
:100170005A985B985C985D9A06C05A9A5B985C980E
:100180005D9A01C00895089560E00895EEE8F0E0FA
:10019000E60F059115912591359140E051E06C5F96
:1001A00071E0703851F07F9370237F9109F0289AA5
:1001B0002A9A2A982898770FF4CF71E0703851F076
:1001C0007F9371237F9109F0289A2A9A2A98289878
:1001D000770FF4CF2998299A29986C31A9F20895BC
:00000001FF
